{
  "contractName": "Election",
  "abi": [
    {
      "constant": true,
      "inputs": [],
      "name": "candidatesCount",
      "outputs": [
        {
          "name": "",
          "type": "uint256"
        }
      ],
      "payable": false,
      "stateMutability": "view",
      "type": "function"
    },
    {
      "constant": true,
      "inputs": [
        {
          "name": "",
          "type": "uint256"
        }
      ],
      "name": "candidates",
      "outputs": [
        {
          "name": "id",
          "type": "uint256"
        },
        {
          "name": "name",
          "type": "string"
        },
        {
          "name": "voteCount",
          "type": "uint256"
        }
      ],
      "payable": false,
      "stateMutability": "view",
      "type": "function"
    },
    {
      "inputs": [],
      "payable": false,
      "stateMutability": "nonpayable",
      "type": "constructor"
    }
  ],
  "bytecode": "0x608060405234801561001057600080fd5b5061005e6040805190810160405280600e81526020017f5279616e204d634372656164696500000000000000000000000000000000000081525061014a640100000000026401000000009004565b6100ab6040805190810160405280600b81526020017f5a61636b205765696e657200000000000000000000000000000000000000000081525061014a640100000000026401000000009004565b6100f86040805190810160405280600c81526020017f4a65726f6d65205374617272000000000000000000000000000000000000000081525061014a640100000000026401000000009004565b6101456040805190810160405280601081526020017f496e73706563746f72204d756c6c65720000000000000000000000000000000081525061014a640100000000026401000000009004565b61026b565b6001600081548092919060010191905055506060604051908101604052806001548152602001828152602001600081525060008060015481526020019081526020016000206000820151816000015560208201518160010190805190602001906101b59291906101c6565b506040820151816002015590505050565b828054600181600116156101000203166002900490600052602060002090601f016020900481019282601f1061020757805160ff1916838001178555610235565b82800160010185558215610235579182015b82811115610234578251825591602001919060010190610219565b5b5090506102429190610246565b5090565b61026891905b8082111561026457600081600090555060010161024c565b5090565b90565b6102248061027a6000396000f30060806040526004361061004c576000357c0100000000000000000000000000000000000000000000000000000000900463ffffffff1680632d35a8a2146100515780633477ee2e1461007c575b600080fd5b34801561005d57600080fd5b50610066610130565b6040518082815260200191505060405180910390f35b34801561008857600080fd5b506100a760048036038101908080359060200190929190505050610136565b6040518084815260200180602001838152602001828103825284818151815260200191508051906020019080838360005b838110156100f35780820151818401526020810190506100d8565b50505050905090810190601f1680156101205780820380516001836020036101000a031916815260200191505b5094505050505060405180910390f35b60015481565b6000602052806000526040600020600091509050806000015490806001018054600181600116156101000203166002900480601f0160208091040260200160405190810160405280929190818152602001828054600181600116156101000203166002900480156101e85780601f106101bd576101008083540402835291602001916101e8565b820191906000526020600020905b8154815290600101906020018083116101cb57829003601f168201915b50505050509080600201549050835600a165627a7a723058206bc0e71fe160053535293eba06cd1bfb8d4b33884bf00f116b9daaf2d723c8160029",
  "source": "pragma solidity ^0.4.2;\n\ncontract Election{\n  //Model A Candidate\n  //Store Candidates\n  //Fetch Candidate\n  //Store Candidates Count\n\n  struct Candidate{\n    uint id;\n    string name;\n    uint voteCount;\n  }\n\n  mapping( uint => Candidate) public candidates;\n\n  uint public candidatesCount;\n\n  //Contructor\n  function Election() public {\n    addCandidate('Ryan McCreadie');\n    addCandidate('Zack Weiner');\n    addCandidate('Jerome Starr');\n    addCandidate('Inspector Muller');\n  }\n\n  function addCandidate(string _name) private{\n    candidatesCount ++;\n    candidates[candidatesCount] = Candidate(candidatesCount, _name, 0);\n  }\n}\n",
  "sourcePath": "/Users/el_hefe/Documents/demos/dapp-university/election/contracts/Election.sol",
  "compiler": {
    "name": "solc",
    "version": "0.4.24+commit.e67f0147.Emscripten.clang"
  },
  "schemaVersion": "2.0.1",
  "updatedAt": "2018-09-15T16:53:05.173Z"
}